{
  "_format": "hh-sol-artifact-1",
  "contractName": "LandRegistry",
  "sourceName": "contracts/LandRegistry.sol",
  "abi": [
    {
      "inputs": [],
      "stateMutability": "nonpayable",
      "type": "constructor"
    },
    {
      "anonymous": false,
      "inputs": [
        {
          "indexed": false,
          "internalType": "uint256",
          "name": "landId",
          "type": "uint256"
        },
        {
          "indexed": false,
          "internalType": "bool",
          "name": "status",
          "type": "bool"
        }
      ],
      "name": "DisputeFlagged",
      "type": "event"
    },
    {
      "anonymous": false,
      "inputs": [
        {
          "indexed": false,
          "internalType": "uint256",
          "name": "landId",
          "type": "uint256"
        },
        {
          "indexed": false,
          "internalType": "address",
          "name": "owner",
          "type": "address"
        },
        {
          "indexed": false,
          "internalType": "string",
          "name": "khasraNumber",
          "type": "string"
        }
      ],
      "name": "LandRegistered",
      "type": "event"
    },
    {
      "anonymous": false,
      "inputs": [
        {
          "indexed": false,
          "internalType": "uint256",
          "name": "landId",
          "type": "uint256"
        },
        {
          "indexed": false,
          "internalType": "address",
          "name": "from",
          "type": "address"
        },
        {
          "indexed": false,
          "internalType": "address",
          "name": "to",
          "type": "address"
        }
      ],
      "name": "OwnershipTransferred",
      "type": "event"
    },
    {
      "inputs": [],
      "name": "admin",
      "outputs": [
        {
          "internalType": "address",
          "name": "",
          "type": "address"
        }
      ],
      "stateMutability": "view",
      "type": "function"
    },
    {
      "inputs": [
        {
          "internalType": "uint256",
          "name": "_landId",
          "type": "uint256"
        }
      ],
      "name": "getLand",
      "outputs": [
        {
          "components": [
            {
              "internalType": "uint256",
              "name": "landId",
              "type": "uint256"
            },
            {
              "internalType": "string",
              "name": "khasraNumber",
              "type": "string"
            },
            {
              "internalType": "string",
              "name": "location",
              "type": "string"
            },
            {
              "internalType": "uint256",
              "name": "areaSqFt",
              "type": "uint256"
            },
            {
              "internalType": "address payable",
              "name": "owner",
              "type": "address"
            },
            {
              "internalType": "string",
              "name": "documentIPFSHash",
              "type": "string"
            },
            {
              "internalType": "bool",
              "name": "isDisputed",
              "type": "bool"
            },
            {
              "internalType": "bool",
              "name": "isRegistered",
              "type": "bool"
            }
          ],
          "internalType": "struct LandRegistry.Land",
          "name": "",
          "type": "tuple"
        }
      ],
      "stateMutability": "view",
      "type": "function"
    },
    {
      "inputs": [
        {
          "internalType": "uint256",
          "name": "_landId",
          "type": "uint256"
        }
      ],
      "name": "getOwner",
      "outputs": [
        {
          "internalType": "address",
          "name": "",
          "type": "address"
        }
      ],
      "stateMutability": "view",
      "type": "function"
    },
    {
      "inputs": [
        {
          "internalType": "uint256",
          "name": "_landId",
          "type": "uint256"
        }
      ],
      "name": "getTransferHistory",
      "outputs": [
        {
          "components": [
            {
              "internalType": "address",
              "name": "from",
              "type": "address"
            },
            {
              "internalType": "address",
              "name": "to",
              "type": "address"
            },
            {
              "internalType": "uint256",
              "name": "timestamp",
              "type": "uint256"
            }
          ],
          "internalType": "struct LandRegistry.TransferHistory[]",
          "name": "",
          "type": "tuple[]"
        }
      ],
      "stateMutability": "view",
      "type": "function"
    },
    {
      "inputs": [
        {
          "internalType": "uint256",
          "name": "_landId",
          "type": "uint256"
        }
      ],
      "name": "isDisputed",
      "outputs": [
        {
          "internalType": "bool",
          "name": "",
          "type": "bool"
        }
      ],
      "stateMutability": "view",
      "type": "function"
    },
    {
      "inputs": [],
      "name": "landCount",
      "outputs": [
        {
          "internalType": "uint256",
          "name": "",
          "type": "uint256"
        }
      ],
      "stateMutability": "view",
      "type": "function"
    },
    {
      "inputs": [
        {
          "internalType": "uint256",
          "name": "",
          "type": "uint256"
        }
      ],
      "name": "lands",
      "outputs": [
        {
          "internalType": "uint256",
          "name": "landId",
          "type": "uint256"
        },
        {
          "internalType": "string",
          "name": "khasraNumber",
          "type": "string"
        },
        {
          "internalType": "string",
          "name": "location",
          "type": "string"
        },
        {
          "internalType": "uint256",
          "name": "areaSqFt",
          "type": "uint256"
        },
        {
          "internalType": "address payable",
          "name": "owner",
          "type": "address"
        },
        {
          "internalType": "string",
          "name": "documentIPFSHash",
          "type": "string"
        },
        {
          "internalType": "bool",
          "name": "isDisputed",
          "type": "bool"
        },
        {
          "internalType": "bool",
          "name": "isRegistered",
          "type": "bool"
        }
      ],
      "stateMutability": "view",
      "type": "function"
    },
    {
      "inputs": [
        {
          "internalType": "string",
          "name": "_khasraNumber",
          "type": "string"
        },
        {
          "internalType": "string",
          "name": "_location",
          "type": "string"
        },
        {
          "internalType": "uint256",
          "name": "_areaSqFt",
          "type": "uint256"
        },
        {
          "internalType": "address payable",
          "name": "_owner",
          "type": "address"
        },
        {
          "internalType": "string",
          "name": "_documentIPFSHash",
          "type": "string"
        }
      ],
      "name": "registerLand",
      "outputs": [],
      "stateMutability": "nonpayable",
      "type": "function"
    },
    {
      "inputs": [
        {
          "internalType": "uint256",
          "name": "_landId",
          "type": "uint256"
        },
        {
          "internalType": "bool",
          "name": "_status",
          "type": "bool"
        }
      ],
      "name": "setDisputeFlag",
      "outputs": [],
      "stateMutability": "nonpayable",
      "type": "function"
    },
    {
      "inputs": [
        {
          "internalType": "uint256",
          "name": "",
          "type": "uint256"
        },
        {
          "internalType": "uint256",
          "name": "",
          "type": "uint256"
        }
      ],
      "name": "transferHistory",
      "outputs": [
        {
          "internalType": "address",
          "name": "from",
          "type": "address"
        },
        {
          "internalType": "address",
          "name": "to",
          "type": "address"
        },
        {
          "internalType": "uint256",
          "name": "timestamp",
          "type": "uint256"
        }
      ],
      "stateMutability": "view",
      "type": "function"
    },
    {
      "inputs": [
        {
          "internalType": "uint256",
          "name": "_landId",
          "type": "uint256"
        },
        {
          "internalType": "address payable",
          "name": "_newOwner",
          "type": "address"
        }
      ],
      "name": "transferOwnership",
      "outputs": [],
      "stateMutability": "nonpayable",
      "type": "function"
    }
  ],
  "bytecode": "0x608060405234801561001057600080fd5b5033600360006101000a81548173ffffffffffffffffffffffffffffffffffffffff021916908373ffffffffffffffffffffffffffffffffffffffff160217905550611fde806100616000396000f3fe608060405234801561001057600080fd5b50600436106100a95760003560e01c8063d7bce65811610071578063d7bce65814610176578063dedaff5414610194578063e027bb34146101c6578063e261f1e5146101e2578063f02dd53f14610219578063f851a44014610249576100a9565b806329507f73146100ae5780637ccc586e146100ca5780638bb27d02146100fa578063971ae5771461012a578063c41a360a14610146575b600080fd5b6100c860048036038101906100c391906111a9565b610267565b005b6100e460048036038101906100df91906111e9565b6105c9565b6040516100f19190611231565b60405180910390f35b610114600480360381019061010f91906111e9565b6105f5565b604051610121919061136d565b60405180910390f35b610144600480360381019061013f91906114d5565b61071d565b005b610160600480360381019061015b91906111e9565b610955565b60405161016d91906115b3565b60405180910390f35b61017e6109f6565b60405161018b91906115dd565b60405180910390f35b6101ae60048036038101906101a991906115f8565b6109fc565b6040516101bd93929190611638565b60405180910390f35b6101e060048036038101906101db919061169b565b610a83565b005b6101fc60048036038101906101f791906111e9565b610b7d565b604051610210989796959493929190611769565b60405180910390f35b610233600480360381019061022e91906111e9565b610d97565b6040516102409190611922565b60405180910390f35b61025161107c565b60405161025e91906115b3565b60405180910390f35b813373ffffffffffffffffffffffffffffffffffffffff1660008083815260200190815260200160002060040160009054906101000a900473ffffffffffffffffffffffffffffffffffffffff1673ffffffffffffffffffffffffffffffffffffffff161461030b576040517f08c379a000000000000000000000000000000000000000000000000000000000815260040161030290611990565b60405180910390fd5b60008084815260200190815260200160002060060160009054906101000a900460ff161561036e576040517f08c379a0000000000000000000000000000000000000000000000000000000008152600401610365906119fc565b60405180910390fd5b600073ffffffffffffffffffffffffffffffffffffffff168273ffffffffffffffffffffffffffffffffffffffff16036103dd576040517f08c379a00000000000000000000000000000000000000000000000000000000081526004016103d490611a68565b60405180910390fd5b600080600085815260200190815260200160002060040160009054906101000a900473ffffffffffffffffffffffffffffffffffffffff1690508260008086815260200190815260200160002060040160006101000a81548173ffffffffffffffffffffffffffffffffffffffff021916908373ffffffffffffffffffffffffffffffffffffffff1602179055506001600085815260200190815260200160002060405180606001604052808373ffffffffffffffffffffffffffffffffffffffff1681526020018573ffffffffffffffffffffffffffffffffffffffff16815260200142815250908060018154018082558091505060019003906000526020600020906003020160009091909190915060008201518160000160006101000a81548173ffffffffffffffffffffffffffffffffffffffff021916908373ffffffffffffffffffffffffffffffffffffffff16021790555060208201518160010160006101000a81548173ffffffffffffffffffffffffffffffffffffffff021916908373ffffffffffffffffffffffffffffffffffffffff1602179055506040820151816002015550507f16b85f49bf01212961345d3016c9a531894accf62eb7680f2045d79185cc0ec08482856040516105bb93929190611ae7565b60405180910390a150505050565b600080600083815260200190815260200160002060060160009054906101000a900460ff169050919050565b606060016000838152602001908152602001600020805480602002602001604051908101604052809291908181526020016000905b8282101561071257838290600052602060002090600302016040518060600160405290816000820160009054906101000a900473ffffffffffffffffffffffffffffffffffffffff1673ffffffffffffffffffffffffffffffffffffffff1673ffffffffffffffffffffffffffffffffffffffff1681526020016001820160009054906101000a900473ffffffffffffffffffffffffffffffffffffffff1673ffffffffffffffffffffffffffffffffffffffff1673ffffffffffffffffffffffffffffffffffffffff1681526020016002820154815250508152602001906001019061062a565b505050509050919050565b600360009054906101000a900473ffffffffffffffffffffffffffffffffffffffff1673ffffffffffffffffffffffffffffffffffffffff163373ffffffffffffffffffffffffffffffffffffffff16146107ad576040517f08c379a00000000000000000000000000000000000000000000000000000000081526004016107a490611b6a565b60405180910390fd5b600260008154809291906107c090611bb9565b919050555060405180610100016040528060025481526020018681526020018581526020018481526020018373ffffffffffffffffffffffffffffffffffffffff1681526020018281526020016000151581526020016001151581525060008060025481526020019081526020016000206000820151816000015560208201518160010190816108509190611e03565b5060408201518160020190816108669190611e03565b506060820151816003015560808201518160040160006101000a81548173ffffffffffffffffffffffffffffffffffffffff021916908373ffffffffffffffffffffffffffffffffffffffff16021790555060a08201518160050190816108cd9190611e03565b5060c08201518160060160006101000a81548160ff02191690831515021790555060e08201518160060160016101000a81548160ff0219169083151502179055509050507f9c4ad74928fec1ee86181680df0e76bf575b79ea2a0347f7ed270884bdd26ad7600254838760405161094693929190611ed5565b60405180910390a15050505050565b600080600083815260200190815260200160002060060160019054906101000a900460ff166109b9576040517f08c379a00000000000000000000000000000000000000000000000000000000081526004016109b090611f5f565b60405180910390fd5b60008083815260200190815260200160002060040160009054906101000a900473ffffffffffffffffffffffffffffffffffffffff169050919050565b60025481565b60016020528160005260406000208181548110610a1857600080fd5b9060005260206000209060030201600091509150508060000160009054906101000a900473ffffffffffffffffffffffffffffffffffffffff16908060010160009054906101000a900473ffffffffffffffffffffffffffffffffffffffff16908060020154905083565b600360009054906101000a900473ffffffffffffffffffffffffffffffffffffffff1673ffffffffffffffffffffffffffffffffffffffff163373ffffffffffffffffffffffffffffffffffffffff1614610b13576040517f08c379a0000000000000000000000000000000000000000000000000000000008152600401610b0a90611b6a565b60405180910390fd5b8060008084815260200190815260200160002060060160006101000a81548160ff0219169083151502179055507fa5f2e1b378856510ff4dc12185d6adbca18c2c9c96790963f795ceecacfd1ac98282604051610b71929190611f7f565b60405180910390a15050565b6000602052806000526040600020600091509050806000015490806001018054610ba690611c30565b80601f0160208091040260200160405190810160405280929190818152602001828054610bd290611c30565b8015610c1f5780601f10610bf457610100808354040283529160200191610c1f565b820191906000526020600020905b815481529060010190602001808311610c0257829003601f168201915b505050505090806002018054610c3490611c30565b80601f0160208091040260200160405190810160405280929190818152602001828054610c6090611c30565b8015610cad5780601f10610c8257610100808354040283529160200191610cad565b820191906000526020600020905b815481529060010190602001808311610c9057829003601f168201915b5050505050908060030154908060040160009054906101000a900473ffffffffffffffffffffffffffffffffffffffff1690806005018054610cee90611c30565b80601f0160208091040260200160405190810160405280929190818152602001828054610d1a90611c30565b8015610d675780601f10610d3c57610100808354040283529160200191610d67565b820191906000526020600020905b815481529060010190602001808311610d4a57829003601f168201915b5050505050908060060160009054906101000a900460ff16908060060160019054906101000a900460ff16905088565b610d9f6110a2565b60008083815260200190815260200160002060060160019054906101000a900460ff16610e01576040517f08c379a0000000000000000000000000000000000000000000000000000000008152600401610df890611f5f565b60405180910390fd5b6000808381526020019081526020016000206040518061010001604052908160008201548152602001600182018054610e3990611c30565b80601f0160208091040260200160405190810160405280929190818152602001828054610e6590611c30565b8015610eb25780601f10610e8757610100808354040283529160200191610eb2565b820191906000526020600020905b815481529060010190602001808311610e9557829003601f168201915b50505050508152602001600282018054610ecb90611c30565b80601f0160208091040260200160405190810160405280929190818152602001828054610ef790611c30565b8015610f445780601f10610f1957610100808354040283529160200191610f44565b820191906000526020600020905b815481529060010190602001808311610f2757829003601f168201915b50505050508152602001600382015481526020016004820160009054906101000a900473ffffffffffffffffffffffffffffffffffffffff1673ffffffffffffffffffffffffffffffffffffffff1673ffffffffffffffffffffffffffffffffffffffff168152602001600582018054610fbd90611c30565b80601f0160208091040260200160405190810160405280929190818152602001828054610fe990611c30565b80156110365780601f1061100b57610100808354040283529160200191611036565b820191906000526020600020905b81548152906001019060200180831161101957829003601f168201915b505050505081526020016006820160009054906101000a900460ff161515151581526020016006820160019054906101000a900460ff1615151515815250509050919050565b600360009054906101000a900473ffffffffffffffffffffffffffffffffffffffff1681565b60405180610100016040528060008152602001606081526020016060815260200160008152602001600073ffffffffffffffffffffffffffffffffffffffff168152602001606081526020016000151581526020016000151581525090565b6000604051905090565b600080fd5b600080fd5b6000819050919050565b61112881611115565b811461113357600080fd5b50565b6000813590506111458161111f565b92915050565b600073ffffffffffffffffffffffffffffffffffffffff82169050919050565b60006111768261114b565b9050919050565b6111868161116b565b811461119157600080fd5b50565b6000813590506111a38161117d565b92915050565b600080604083850312156111c0576111bf61110b565b5b60006111ce85828601611136565b92505060206111df85828601611194565b9150509250929050565b6000602082840312156111ff576111fe61110b565b5b600061120d84828501611136565b91505092915050565b60008115159050919050565b61122b81611216565b82525050565b60006020820190506112466000830184611222565b92915050565b600081519050919050565b600082825260208201905092915050565b6000819050602082019050919050565b60006112838261114b565b9050919050565b61129381611278565b82525050565b6112a281611115565b82525050565b6060820160008201516112be600085018261128a565b5060208201516112d1602085018261128a565b5060408201516112e46040850182611299565b50505050565b60006112f683836112a8565b60608301905092915050565b6000602082019050919050565b600061131a8261124c565b6113248185611257565b935061132f83611268565b8060005b8381101561136057815161134788826112ea565b975061135283611302565b925050600181019050611333565b5085935050505092915050565b60006020820190508181036000830152611387818461130f565b905092915050565b600080fd5b600080fd5b6000601f19601f8301169050919050565b7f4e487b7100000000000000000000000000000000000000000000000000000000600052604160045260246000fd5b6113e282611399565b810181811067ffffffffffffffff82111715611401576114006113aa565b5b80604052505050565b6000611414611101565b905061142082826113d9565b919050565b600067ffffffffffffffff8211156114405761143f6113aa565b5b61144982611399565b9050602081019050919050565b82818337600083830152505050565b600061147861147384611425565b61140a565b90508281526020810184848401111561149457611493611394565b5b61149f848285611456565b509392505050565b600082601f8301126114bc576114bb61138f565b5b81356114cc848260208601611465565b91505092915050565b600080600080600060a086880312156114f1576114f061110b565b5b600086013567ffffffffffffffff81111561150f5761150e611110565b5b61151b888289016114a7565b955050602086013567ffffffffffffffff81111561153c5761153b611110565b5b611548888289016114a7565b945050604061155988828901611136565b935050606061156a88828901611194565b925050608086013567ffffffffffffffff81111561158b5761158a611110565b5b611597888289016114a7565b9150509295509295909350565b6115ad81611278565b82525050565b60006020820190506115c860008301846115a4565b92915050565b6115d781611115565b82525050565b60006020820190506115f260008301846115ce565b92915050565b6000806040838503121561160f5761160e61110b565b5b600061161d85828601611136565b925050602061162e85828601611136565b9150509250929050565b600060608201905061164d60008301866115a4565b61165a60208301856115a4565b61166760408301846115ce565b949350505050565b61167881611216565b811461168357600080fd5b50565b6000813590506116958161166f565b92915050565b600080604083850312156116b2576116b161110b565b5b60006116c085828601611136565b92505060206116d185828601611686565b9150509250929050565b600081519050919050565b600082825260208201905092915050565b60005b838110156117155780820151818401526020810190506116fa565b60008484015250505050565b600061172c826116db565b61173681856116e6565b93506117468185602086016116f7565b61174f81611399565b840191505092915050565b6117638161116b565b82525050565b60006101008201905061177f600083018b6115ce565b8181036020830152611791818a611721565b905081810360408301526117a58189611721565b90506117b460608301886115ce565b6117c1608083018761175a565b81810360a08301526117d38186611721565b90506117e260c0830185611222565b6117ef60e0830184611222565b9998505050505050505050565b600082825260208201905092915050565b6000611818826116db565b61182281856117fc565b93506118328185602086016116f7565b61183b81611399565b840191505092915050565b61184f8161116b565b82525050565b61185e81611216565b82525050565b60006101008301600083015161187d6000860182611299565b5060208301518482036020860152611895828261180d565b915050604083015184820360408601526118af828261180d565b91505060608301516118c46060860182611299565b5060808301516118d76080860182611846565b5060a083015184820360a08601526118ef828261180d565b91505060c083015161190460c0860182611855565b5060e083015161191760e0860182611855565b508091505092915050565b6000602082019050818103600083015261193c8184611864565b905092915050565b7f4e6f7420746865206c616e64206f776e65720000000000000000000000000000600082015250565b600061197a6012836116e6565b915061198582611944565b602082019050919050565b600060208201905081810360008301526119a98161196d565b9050919050565b7f4c616e6420697320756e64657220646973707574650000000000000000000000600082015250565b60006119e66015836116e6565b91506119f1826119b0565b602082019050919050565b60006020820190508181036000830152611a15816119d9565b9050919050565b7f496e76616c696420616464726573730000000000000000000000000000000000600082015250565b6000611a52600f836116e6565b9150611a5d82611a1c565b602082019050919050565b60006020820190508181036000830152611a8181611a45565b9050919050565b6000819050919050565b6000611aad611aa8611aa38461114b565b611a88565b61114b565b9050919050565b6000611abf82611a92565b9050919050565b6000611ad182611ab4565b9050919050565b611ae181611ac6565b82525050565b6000606082019050611afc60008301866115ce565b611b0960208301856115a4565b611b166040830184611ad8565b949350505050565b7f4f6e6c792061646d696e2063616e20706572666f726d20746869730000000000600082015250565b6000611b54601b836116e6565b9150611b5f82611b1e565b602082019050919050565b60006020820190508181036000830152611b8381611b47565b9050919050565b7f4e487b7100000000000000000000000000000000000000000000000000000000600052601160045260246000fd5b6000611bc482611115565b91507fffffffffffffffffffffffffffffffffffffffffffffffffffffffffffffffff8203611bf657611bf5611b8a565b5b600182019050919050565b7f4e487b7100000000000000000000000000000000000000000000000000000000600052602260045260246000fd5b60006002820490506001821680611c4857607f821691505b602082108103611c5b57611c5a611c01565b5b50919050565b60008190508160005260206000209050919050565b60006020601f8301049050919050565b600082821b905092915050565b600060088302611cc37fffffffffffffffffffffffffffffffffffffffffffffffffffffffffffffffff82611c86565b611ccd8683611c86565b95508019841693508086168417925050509392505050565b6000611d00611cfb611cf684611115565b611a88565b611115565b9050919050565b6000819050919050565b611d1a83611ce5565b611d2e611d2682611d07565b848454611c93565b825550505050565b600090565b611d43611d36565b611d4e818484611d11565b505050565b5b81811015611d7257611d67600082611d3b565b600181019050611d54565b5050565b601f821115611db757611d8881611c61565b611d9184611c76565b81016020851015611da0578190505b611db4611dac85611c76565b830182611d53565b50505b505050565b600082821c905092915050565b6000611dda60001984600802611dbc565b1980831691505092915050565b6000611df38383611dc9565b9150826002028217905092915050565b611e0c826116db565b67ffffffffffffffff811115611e2557611e246113aa565b5b611e2f8254611c30565b611e3a828285611d76565b600060209050601f831160018114611e6d5760008415611e5b578287015190505b611e658582611de7565b865550611ecd565b601f198416611e7b86611c61565b60005b82811015611ea357848901518255600182019150602085019450602081019050611e7e565b86831015611ec05784890151611ebc601f891682611dc9565b8355505b6001600288020188555050505b505050505050565b6000606082019050611eea60008301866115ce565b611ef76020830185611ad8565b8181036040830152611f098184611721565b9050949350505050565b7f4c616e64206e6f7420666f756e64000000000000000000000000000000000000600082015250565b6000611f49600e836116e6565b9150611f5482611f13565b602082019050919050565b60006020820190508181036000830152611f7881611f3c565b9050919050565b6000604082019050611f9460008301856115ce565b611fa16020830184611222565b939250505056fea26469706673582212203dc632dc087bf4a32559a809f5faf18e47582bb0e2b60eed1046082bc4bcc4f664736f6c63430008140033",
  "linkReferences": {},
  "deployedLinkReferences": {}
}